:1000000029C0000037C0000035C0000033C0000028
:1000100031C000002FC000002DC000002BC0000028
:1000200029C0000027C0000025C00000FCC000005F
:1000300021C000001FC000001DC000001BC0000048
:1000400019C0000017C0000015C0000013C0000058
:1000500011C0000011241FBECFE5D8E0DEBFCDBF28
:1000600020E0A0E6B0E001C01D92A936B207E1F79A
:1000700093D008C2C5CF4FEF60E183E08BD14FEF43
:1000800064E083E087D14FEF68E083E083D14FEFF6
:1000900060E283E07FD14FEF60E483E07BD14FEFFC
:1000A00060E883E077C10895882319F0813031F149
:1000B0000895613089F018F06230B9F0089540E099
:1000C00060E183E0A3D140E064E083E09FD140E0C1
:1000D00068E083E09BC108954FEF64E083E096D130
:1000E00040E068E083E092C1089540E064E083E08E
:1000F0008DD14FEF68E083E089C10895613089F0C8
:1001000018F06230B9F0089540E060E283E07ED1FB
:1001100040E060E483E07AD140E060E883E076C1CB
:1001200008954FEF60E483E071D140E060E883E040
:100130006DC1089540E060E483E068D14FEF60E86E
:1001400083E064C10895CF93C82F81E0809362005B
:10015000C23060F06AEFD1D082E390E005D18091A7
:1001600062008F5F809362008C17A0F384E690E0BA
:10017000FBD0C0936200CC2369F08C2F6AEFBDD016
:1001800082E390E0F1D08091620081508093620020
:100190008111F4CFCF910895EE24E39400E020E0A4
:1001A00042E060E080E083D0C12CE12C20E044E01C
:1001B00060E080E0A7D080E05EDF81E05CDF8FB7A9
:1001C00080688FBF61E080E06FDF61E081E06CDF1D
:1001D00082E3B9DF60E080E067DF60E081E064DF58
:1001E00062E080E061DF62E081E05EDF82E3ABDF5E
:1001F00060E080E059DF60E081E056DF73D061E0CD
:1002000080E052DF60E081E04FDF4FEF60E183E0AC
:10021000FDD084E690E0A8D060E080E045DF60E0BB
:1002200081E042DFFFCF78941F920F920FB60F92BA
:1002300011242F933F934F935F936F937F938F93EB
:100240009F93AF93BF93EF93FF93809160008F5F75
:100250008093600090916100891308C040E060E1E4
:1002600083E0D4D040E060E283E0D0D080916000B1
:10027000843651F44FEF60E183E0C8D04FEF60E285
:1002800083E0C4D01092600080EB82BFFF91EF91B9
:10029000BF91AF919F918F917F916F915F914F919E
:1002A0003F912F910F900FBE0F901F901895EF92D6
:1002B0000F9393B7906893BF93B7892B83BF83B78E
:1002C000682B63BF83B7842B83BF22BF0CBF89B762
:1002D000E82AE9BE50E050936400409363000F9118
:1002E000EF90089583B78D7F83BF83B78B7F83BFE4
:1002F00083B78F7E83BF12BE08958093610080EB29
:1003000082BF0895CF92EF920F9395B5892B85BD4B
:1003100085B5682B65BD85B5842B85BD84B5282B37
:1003200024BD83B5082B03BD82B5E82AE2BC89B79A
:10033000C82AC9BE50E050936600409365000F91F3
:10034000EF90CF90089595B580916500892B85BD7C
:10035000089585B58D7F85BD85B58B7F85BD85B5B8
:100360008F7E85BD14BC08951F93CF93DF930097B4
:1003700069F0EC0116E0E7DF14BD08B606FEFDCF1C
:1003800088B7806488BFE5DF2197A9F7DF91CF9117
:100390001F910895813099F028F08230E9F0833080
:1003A00041F108954F3F21F48AB3682B6ABB089549
:1003B00041112BC08AB3609568236ABB08954F3FF3
:1003C00021F487B3682B67BB089541111EC087B322
:1003D0006095682367BB08954F3F21F484B3682B71
:1003E00064BB0895411111C084B36095682364BB58
:1003F00008954F3F21F481B3682B61BB08954111EB
:1004000004C081B36095682361BB0895813099F081
:1004100028F08230E9F0833041F108954F3F21F414
:100420008BB3682B6BBB089541112BC08BB36095C8
:1004300068236BBB08954F3F21F488B3682B68BBDA
:10044000089541111EC088B36095682368BB089564
:100450004F3F21F485B3682B65BB0895411111C04E
:1004600085B36095682365BB08954F3F21F482B33F
:10047000682B62BB0895411104C082B36095682364
:0804800062BB0895F894FFCF60
:00000001FF
