:1000000029C0000037C0000035C0000010C100004A
:1000100031C000002FC000002DC000002BC0000028
:1000200029C0000027C0000025C000005CC10000FE
:1000300021C000001FC000001DC000001BC0000048
:1000400019C0000017C0000015C0000013C0000058
:1000500011C0000011241FBECFE5D8E0DEBFCDBF28
:1000600020E0A0E6B0E001C01D92AC36B207E1F797
:10007000A2D044C4C5CF8BB780628BBF08958BB725
:100080008BBF089584B7806484BF089584B78F7B45
:1000900084BF08958F92AF92BF92CF92DF92EF927A
:1000A000FF920F931F934FEF68E081E0D5D14FEFA0
:1000B00060E183E0D1D14FEF60E283E0CDD14FEF3B
:1000C00060E883E0C9D1812CA12CB12CC12CD12CAA
:1000D000E12CF12C00E010E025E030E040E050E0C1
:1000E00060E070EA88E192E06DD11F910F91FF907E
:1000F000EF90DF90CF90BF90AF908F900895CF9208
:10010000DF92EF92FF921F93CF93DF93182F9A0104
:10011000AB01012E1BE0220F331F441F551F1A9500
:10012000D1F7102D60E074E284EF90E0B1D321505C
:10013000C22FD0E0D7BDC6BD612F70E080E090E057
:10014000A3D220E030E048EC52E40AD26B017C01FB
:10015000BE01DD0F880B990B99D29B01AC01C70141
:10016000B60120D365D27BBD6ABD79BD68BDDF9184
:10017000CF911F91FF90EF90DF90CF900895813045
:1001800059F028F0823069F0833081F008954FEF04
:1001900060E181E061C108954FEF60E281E05CC100
:1001A00008954FEF60E481E057C108954FEF60E894
:1001B00081E052C1089580E0E2DF81E0E0DF82E08B
:1001C000DEDF83E0DCDF66DF83E06AD08AD0BCD18B
:1001D0008FB780688FBFE12C00E020E044E060E052
:1001E00080E0C5D083E065D04AEF50E060E070E089
:1001F0008BE485DF14E4C8EED3E0A9D180916500DB
:10020000189FC0011124BE0130D370936100609328
:100210006000809160009091610028B38295929572
:10022000907F9827807F9827822B88BBE6CF789491
:100230001F920F920FB60F9211242F933F934F935B
:100240005F936F937F938F939F93AF93BF93EF933E
:10025000FF9380916200833039F4A3D082E029D0EB
:100260008AB78F7D8ABF0BC080916200823039F4DB
:1002700085E690E02ED083E01CD099D012BEFF918D
:10028000EF91BF91AF919F918F917F916F915F910E
:100290004F913F912F910F900FBE0F901F90189587
:1002A000823019F0833019F00895F0CE0895EACE27
:1002B0000895CF93C82FE3DEC0936200C23019F0D7
:1002C000C33019F003C0E2DE01C0DCDED4DECF9122
:1002D0000895CF93DF93EC0162D08883DF91CF91B3
:1002E0000895C9CE089578941F920F920FB60F9279
:1002F00011242F933F934F935F936F937F938F932B
:100300009F93AF93BF93EF93FF93809163008F5FB1
:100310008093630090916400891308C040E060E11D
:1003200083E0D6D040E060E283E0D2D080916300E9
:10033000843651F44FEF60E183E0CAD04FEF60E2C2
:1003400083E0C6D01092630080EB82BFFF91EF91F3
:10035000BF91AF919F918F917F916F915F914F91DD
:100360003F912F910F900FBE0F901F901895EF9215
:100370000F9393B7906893BF93B7892B83BF83B7CD
:10038000682B63BF22BF0CBF89B7E82AE9BE50E0E3
:1003900050936700409366000F91EF90089582B7E5
:1003A000089593B780916600892B83BF089583B722
:1003B0008D7F83BF83B78B7F83BF83B78F7E83BFE0
:1003C00012BE08958F92AF92BF92CF92DF92EF92BA
:1003D000FF920F931F93CF93DF93CDB7DEB7EEB5A8
:1003E000FFB58E2B9F2B9FBD8EBD8EB59FB5682B05
:1003F000792B7FBD6EBD8EB59FB5822B932B9FBD94
:100400008EBD8CB59DB5082B192B1DBD0CBD8AB5B5
:100410009BB5E82AF92AFBBCEABC88B599B5C82A7D
:10042000D92AD9BCC8BC86B597B5A82AB92AB7BC01
:10043000A6BC89B7882A89BE30936B0020936A00D6
:10044000DF91CF911F910F91FF90EF90DF90CF90B0
:10045000BF90AF908F900895813099F028F082304E
:10046000E9F0833041F108954F3F21F48AB3682BBE
:100470006ABB089541112BC08AB3609568236ABB9B
:1004800008954F3F21F487B3682B67BB089541114E
:100490001EC087B36095682367BB08954F3F21F462
:1004A00084B3682B64BB0895411111C084B3609577
:1004B000682364BB08954F3F21F481B3682B61BB6F
:1004C0000895411104C081B36095682361BB08950C
:1004D000813099F028F08230E9F0833041F10895BD
:1004E0004F3F21F48BB3682B6BBB089541112BC098
:1004F0008BB3609568236BBB08954F3F21F488B39D
:10050000682B68BB089541111EC088B360956823AD
:1005100068BB08954F3F21F485B3682B65BB0895F0
:10052000411111C085B36095682365BB08954F3FA5
:1005300021F482B3682B62BB0895411104C082B3D9
:100540006095682362BB0895BB9ABA980895C398D2
:1005500000C0C39A83E08A95F1F70000C39808951C
:100560000CD0E6C0DED040F0D5D030F021F45F3FB3
:1005700019F0C7C0511110C1CAC0EBD098F399232C
:10058000C9F35523B1F3951B550BBB27AA27621757
:100590007307840738F09F5F5F4F220F331F441F9C
:1005A000AA1FA9F333D00E2E3AF0E0E830D09150D4
:1005B0005040E695001CCAF729D0FE2F27D0660FC1
:1005C000771F881FBB1F261737074807AB07B0E800
:1005D00009F0BB0B802DBF01FF2793585F4F2AF016
:1005E0009E3F510568F08DC0D7C05F3FECF3983E49
:1005F000DCF3869577956795B795F7959F5FC9F773
:10060000880F911D9695879597F90895E1E0660FFB
:10061000771F881FBB1F621773078407BA0720F074
:10062000621B730B840BBA0BEE1F88F7E0950895DD
:1006300098D088F09F5790F0B92F9927B751A0F024
:10064000D1F0660F771F881F991F1AF0BA95C9F766
:1006500012C0B13081F09FD0B1E008959CC0672FE7
:10066000782F8827B85F39F0B93FCCF38695779516
:100670006795B395D9F73EF49095809570956195FF
:100680007F4F8F4F9F4F0895E89409C097FB3EF42A
:1006900090958095709561957F4F8F4F9F4F9923CF
:1006A000A9F0F92F96E9BB279395F695879577954D
:1006B0006795B795F111F8CFFAF4BB0F11F460FF0D
:1006C0001BC06F5F7F4F8F4F9F4F16C0882311F065
:1006D00096E911C0772321F09EE8872F762F05C079
:1006E000662371F096E8862F70E060E02AF09A9514
:1006F000660F771F881FDAF7880F9695879597F909
:10070000089597F99F6780E870E060E008959FEF93
:1007100080EC089500240A94161617061806090698
:10072000089500240A941216130614060506089567
:10073000092E0394000C11F4882352F0BB0F40F4EF
:10074000BF2B11F460FF04C06F5F7F4F8F4F9F4F2F
:10075000089557FD9058440F551F59F05F3F71F0B1
:100760004795880F97FB991F61F09F3F79F0879518
:100770000895121613061406551FF2CF4695F1DFA1
:1007800008C0161617061806991FF1CF8695710531
:10079000610508940895E894BB2766277727CB0165
:1007A00097F908950BD0C4CFB5DF28F0BADF18F061
:1007B000952309F0A6CFABCF1124EECFCADFA0F36B
:1007C000959FD1F3950F50E0551F629FF001729FE6
:1007D000BB27F00DB11D639FAA27F00DB11DAA1F05
:1007E000649F6627B00DA11D661F829F2227B00D52
:1007F000A11D621F739FB00DA11D621F839FA00DDD
:10080000611D221F749F3327A00D611D231F849F2C
:10081000600D211D822F762F6A2F11249F57504083
:100820008AF0E1F088234AF0EE0FFF1FBB1F661F1E
:10083000771F881F91505040A9F79E3F510570F0D7
:1008400060CFAACF5F3FECF3983EDCF386957795B7
:100850006795B795F795E7959F5FC1F7FE2B880FD2
:10086000911D9695879597F9089597FB072E16F495
:10087000009406D077FD08D02DD007FC05D03EF4BB
:10088000909581959F4F0895709561957F4F08953C
:10089000A1E21A2EAA1BBB1BFD010DC0AA1FBB1F84
:1008A000EE1FFF1FA217B307E407F50720F0A21BF6
:1008B000B30BE40BF50B661F771F881F991F1A9463
:1008C00069F760957095809590959B01AC01BD018D
:1008D000CF010895AA1BBB1B51E107C0AA1FBB1F74
:1008E000A617B70710F0A61BB70B881F991F5A95BC
:1008F000A9F780959095BC01CD010895F894FFCF9C
:00000001FF
