:1000000029C00000C9C00000D2C00000DBC0000051
:10001000E4C00000EDC00000F6C00000FFC000001A
:1000200008C1000011C100001AC1000023C0000077
:1000300021C100002AC1000033C100003CC1000002
:1000400045C100004EC1000057C1000060C1000062
:1000500069C1000011241FBECFE5D8E0DEBFCDBFCF
:1000600020E0A0E6B0E001C01D92A836B207E1F79B
:1000700056D098C2C5CF813059F028F0823069F04F
:10008000833081F008954FEF60E181E013C208955D
:100090004FEF60E281E00EC208954FEF60E481E02F
:1000A00009C208954FEF60E881E004C208958130ED
:1000B00059F028F0823069F0833081F008954FEFD5
:1000C00060E181E033C208954FEF60E281E02EC22B
:1000D00008954FEF60E481E029C208954FEF60E892
:1000E00081E024C20895813059F028F0823069F00F
:1000F000833081F0089540E060E181E017C2089507
:1001000040E060E281E012C2089540E060E481E0F6
:100110000DC2089540E060E881E008C208954FEF05
:1001200060EF81E0C7D140E064E182E0C3D140E00C
:1001300064E081E0BFD180E09EDF8FB780688FBF31
:10014000E12C00E020E043E060E080E0F6D0812C8C
:10015000A12CB12CC12CD12C0F2EFAEFEF2EF12CAB
:10016000F02D00E010E023E030E040E050E060E0FF
:1001700070E088E02AD1E12C20E044E060E080E0FB
:1001800051D180E094DF88EE93E07ED180E0ABDF58
:1001900088EE93E079D1F5CF78941F920F920FB645
:1001A0000F9211240F900FBE0F901F901895789406
:1001B0001F920F920FB60F9211240F900FBE0F9047
:1001C0001F90189578941F920F920FB60F921124DA
:1001D0000F900FBE0F901F90189578941F920F925A
:1001E0000FB60F9211240F900FBE0F901F9018950D
:1001F00078941F920F920FB60F9211240F900FBE9A
:100200000F901F90189578941F920F920FB60F922F
:1002100011240F900FBE0F901F90189578941F9285
:100220000F920FB60F9211240F900FBE0F901F90D8
:10023000189578941F920F920FB60F9211240F9079
:100240000FBE0F901F90189578941F920F920FB6C3
:100250000F9211240F900FBE0F901F901895789455
:100260001F920F920FB60F9211240F900FBE0F9096
:100270001F90189578941F920F920FB60F92112429
:100280000F900FBE0F901F90189578941F920F92A9
:100290000FB60F9211240F900FBE0F901F9018955C
:1002A00078941F920F920FB60F9211240F900FBEE9
:1002B0000F901F90189578941F920F920FB60F927F
:1002C00011240F900FBE0F901F90189578941F92D5
:1002D0000F920FB60F9211240F900FBE0F901F9028
:1002E000189578941F920F920FB60F9211240F90C9
:1002F0000FBE0F901F90189578941F920F920FB613
:100300000F9211240F900FBE0F901F9018957894A4
:100310001F920F920FB60F9211240F900FBE0F90E5
:100320001F90189578941F920F920FB60F92112478
:100330000F900FBE0F901F901895EF920F9393B7E9
:10034000892B83BF83B7682B63BF83B7842B83BF9D
:1003500082B7282B22BF8CB7082B0CBF89B7E82A9D
:10036000E9BE842F90E09093630080936200433055
:10037000A9F028F4413041F0423059F023C0443014
:10038000A1F04530C9F01EC01092610010926000CB
:1003900019C0109261001092600014C080E094E0D7
:1003A00090936100809360000DC080E090E1909395
:1003B00061008093600006C080E090E4909361004B
:1003C000809360000F91EF9008958F92AF92CF923B
:1003D000EF920F93CF93DF93CDB7DEB79EB5892B06
:1003E0008EBD8AB5682B6ABD8EB5822B8EBD8CB54D
:1003F000082B0CBD8AB5E82AEABC88B5C82AC8BC57
:1004000086B5A82AA6BC89B7882A89BE209366002B
:1004100030936700DF91CF910F91EF90CF90AF9025
:100420008F900895CF92EF920F9395B5892B85BD4C
:1004300085B5682B65BD85B5842B85BD84B5282B16
:1004400024BD83B5082B03BD82B5E82AE2BC89B779
:10045000C82AC9BE50E050936500409364000F91D4
:10046000EF90CF90089595B580916400892B85BD5C
:10047000089585B58D7F85BD85B58B7F85BD85B597
:100480008F7E85BD14BC08951F93CF93DF93009793
:1004900069F0EC0116E0E7DF14BD08B606FEFDCFFB
:1004A00088B7806488BFE5DF2197A9F7DF91CF91F6
:1004B0001F910895813099F028F08230E9F083305F
:1004C00041F108954F3F21F48AB3682B6ABB089528
:1004D00041112BC08AB3609568236ABB08954F3FD2
:1004E00021F487B3682B67BB089541111EC087B301
:1004F0006095682367BB08954F3F21F484B3682B50
:1005000064BB0895411111C084B36095682364BB36
:1005100008954F3F21F481B3682B61BB08954111C9
:1005200004C081B36095682361BB0895813099F060
:1005300028F08230E9F0833041F108954F3F21F4F3
:100540008BB3682B6BBB089541112BC08BB36095A7
:1005500068236BBB08954F3F21F488B3682B68BBB9
:10056000089541111EC088B36095682368BB089543
:100570004F3F21F485B3682B65BB0895411111C02D
:1005800085B36095682365BB08954F3F21F482B31E
:10059000682B62BB0895411104C082B36095682343
:0805A00062BB0895F894FFCF3F
:00000001FF
